:1070000055C00000AFC00000ADC00000ABC0000024
:10701000A9C00000A7C00000A5C00000A3C00000D8
:10702000A1C000009FC000003AC600009BC0000045
:1070300099C0000097C0000095C0000093C00000F8
:1070400091C000008FC000008DC000008BC0000008
:1070500059C2000087C0000085C0000083C0000046
:1070600081C000007FC000007DC000007BC0000028
:1070700079C0000077C0000075C0000073C0000038
:1070800071C000006FC000006DC000006BC0000048
:1070900069C0000067C0000065C0000063C0000058
:1070A00061C000005FC000005DC0000011241FBE71
:1070B000CFEFDAE0DEBFCDBF83E090E0F0D480FD1B
:1070C0000DC081E0209195013091960122343C4D14
:1070D00009F080E094B79D7F94BF11C004B603FE11
:1070E0000AC081E0209195013091960122343C4DF7
:1070F00019F080E001C080E094B7977F94BF20E052
:1071000030E0F901459154918823B9F04F3F5F4F2A
:10711000A1F084B7877F84BF0FB6F894A8958091BB
:107120006000886180936000109260000FBE109232
:10713000960110929501F901099511E0A0E0B1E0E6
:10714000EAECFFE702C005900D92A636B107D9F729
:1071500021E0A6E6B1E001C01D92A539B207E1F732
:107160007BD131C74DCF8823C9F09091F300209196
:10717000F20030E0392B232B69F49091E8009B7FDB
:107180009093E8009091E80092FD06C09EB39111A3
:10719000F9CF04C09091F1008150E5CF0895E0E867
:1071A000F1E0358124819381828190937A018093EB
:1071B0007B01C90190937801809379010895CF9262
:1071C000DF92EF92FF921F93CF93DF9300D01F9235
:1071D000CDB7DEB790918A01809180019923D1F0DB
:1071E000843049F480918101811108C0809182012D
:1071F0008F3F21F455C0853009F4A3C08AE0809305
:10720000000183E0809388018091EB00806280938D
:10721000EB00D5C0843009F443C028F4813051F02C
:107220008330D9F0CCC0853009F48BC0863009F4A6
:10723000B3C0C5C010918101123008F0C0C0AFDFEB
:10724000111109C060917A0170917B0120917C013C
:10725000822F90E0B7D385E007C080918101982FFD
:107260009D7F29F49CDF89E080930001A8C08130D4
:1072700009F0A5C0E0E0F0E084918F3F59F0109252
:107280007C01F0937B01E0937A018AE08093000116
:1072900085E093C03196E11520E7F20769F78FC0CA
:1072A00080918101833091F581E080938901E091A3
:1072B0008601F091870180918201309761F08130E1
:1072C00009F07DC0909185018091840190937D01AA
:1072D00080937E0174C0811111C082E49CED909373
:1072E0009601809395019CE088E10FB6F894A895EB
:1072F000809360000FBE9093600061C0859194916F
:10730000019609F05CC01092010159C0811157C06B
:10731000809182018F3F09F052C0C12CD12C76019F
:10732000C701B6014FD380E8C80ED11CE11CF11C87
:10733000C11420E7D206E104F10491F710928A010A
:107340003EC08091020190910301A09104018983C4
:107350009A83AB838091820190918101911107C042
:10736000833038F5FE01E80FF11D818112C09130A4
:1073700031F5813359F020F48033D9F488E509C020
:10738000803631F08136A9F487E803C08EE101C070
:1073900085E980937F0113C080918101833079F466
:1073A0008091820181110BC08091830180937C01C7
:1073B00006C08AE08093000188E0809388010F90E6
:1073C0000F900F90DF91CF911F91FF90EF90DF9082
:1073D000CF90089524B1242B24B925B1342F3095B2
:1073E000232335B1432B3FB7F894FC01680F791F75
:1073F000E617F70789F0819198E045B9000007F496
:1074000087FF25B9880F000007F407F407F425B9B2
:1074100007F49A9591F7ECCF3FBF08959B01220F97
:10742000331F620F731FD6DF8FEA94E00197F1F7E5
:1074300000C00000089540E4F1CFE6E6F1E081816C
:1074400080958183808180958083828180958283ED
:1074500066E070E0CF01EFCF84B7877F84BF0FB6BF
:10746000F894A895809160008861809360001092E4
:1074700060000FBE90E080E80FB6F8948093610042
:10748000909361000FBEC1E0C5BF82E085BFEAD323
:10749000C0936F0083E0809381008FEF809367013A
:1074A000809366018093680166E070E086E691E073
:1074B000C2DF789480910101882311F062D5FACF60
:1074C000809189018111FACF8FE99FE00197F1F74F
:1074D00000C0000074D310926701109266011092F0
:1074E000680166E070E086E691E0A5DF10926F002B
:1074F0001092810081E085BF15BEE0917D01F09181
:107500007E0109951F920F920FB60F9211242F93AF
:107510003F934F935F936F937F938F939F93AF931B
:10752000BF93EF93FF9389DFFF91EF91BF91AF91ED
:107530009F918F917F916F915F914F913F912F918B
:107540000F900FBE0F901F9018955F926F927F92D1
:107550008F929F92AF92BF92CF92DF92EF92FF9263
:107560000F931F93CF93DF9380918D018F7781329B
:1075700009F0E6C162DF80919301909194019093AC
:1075800087018093860180918E01833009F492C136
:1075900058F48130D1F0823009F0D2C18091E800F6
:1075A000877F8093E800F6C0853009F4A9C108F40C
:1075B0009FC1863009F0C4C18091E800877F809325
:1075C000E80082E080930001ABC18091E800877FF2
:1075D0008093E80080918901882319F0F0DD1092F2
:1075E00089018091860190918701009761F1209136
:1075F000E80022FD04C02EB32111F9CFA1C12091D2
:10760000F100209380010197909387018093860178
:10761000E1E8F1E02091F3008091F20090E0922BFC
:10762000892B81F08091F100819380918601909166
:1076300087010197909387018093860121E0E638C6
:10764000F20741F7BCDD80910001853009F09AC056
:107650008091860190918701892B21F482E08093AB
:10766000000190C08AE17FDD00917A0110917B01D9
:10767000802F8F7178DDC0917801D09179012196AA
:10768000C01BD10B8091810181116AC0D695C7952D
:10769000680180917C01E82EF12C7D2C682E5F2CF6
:1076A00010E02097D9F12091F3008091F20090E052
:1076B000922B892BA9F021974091F1005091F10074
:1076C000C701B601DFD11F5F4601570182E0880E76
:1076D000911CA11CB11C75016401103471F40FC020
:1076E0008091E8008B7F8093E8008091E80082FD24
:1076F000E2CF8EB38111F9CF23C1209791F6602F8D
:10770000772D862D952D8ED1209759F2C501B40184
:1077100059D1082D792C6A2C5B2CC2CF809178012D
:107720009091790190937B0180937A0129C02091F7
:10773000F3008091F20090E0922B892BA1F0219729
:107740006091F10080917A0190917B012AD480911F
:107750007A0190917B01019690937B0180937A014D
:10776000209729F70DC08091E8008B7F8093E80077
:107770008091E80082FDE3CF8EB38111F9CFE0C0A4
:1077800080E1F1DC8091E8008B7F91C08EB388238B
:1077900009F4D6C08091E80080FFF8CF8091000105
:1077A000893091F08A3059F480918101813039F427
:1077B00090917A0180917B019093F10002C08091B9
:1077C0007F018093F10070C020917A0130917B019C
:1077D000C0917801D09179012196C21BD30B809181
:1077E0008101811133C0D695C795C90120917C01D3
:1077F000A22FB0E0219708F14091F3002091F20010
:1078000030E0342B2032310559F0FC0125913491C0
:107810002093F1003093F1000296A11DB11DEACF33
:107820002091E8002E7F2093E8002091E80020FDC1
:10783000ECCF2EB32111F9CF83C0809178019091C4
:10784000790190937B0180937A012BC0823049F5B6
:10785000209739F12091F3008091F20090E0922B73
:10786000809791F080917A0190917B0192D38093DF
:10787000F10080917A0190917B01019690937B01B8
:1078800080937A012197E4CF8091E8008E7F8093E6
:10789000E8008091E80080FDE5CF8EB38111F9CF3B
:1078A0004FC082E0809300018091E8008E7F80933A
:1078B000E80036C08091E800877F8093E8008091DF
:1078C000E80080FD04C08EB38111F9CF39C08091EA
:1078D00088018093F1001092F1001092F100109253
:1078E000F100809100018093F1001092F100DCCF53
:1078F0008091E800877F8093E8001092880110C093
:107900008091E800877F8093E8008091E80080FD07
:1079100004C08EB38111F9CF13C08091000151CF03
:10792000DF91CF911F910F91FF90EF90DF90CF905B
:10793000BF90AF909F908F907F906F905F9022C18B
:10794000DF91CF911F910F91FF90EF90DF90CF903B
:10795000BF90AF909F908F907F906F905F900895B1
:10796000292F30E02230310559F02330310569F0FC
:1079700021303105F9F482E190E024E531E01EC0C8
:107980008BE190E029E331E019C0882349F0813090
:1079900061F0823079F482E190E025E031E00EC0C0
:1079A00084E090E025E331E009C08AE190E029E13C
:1079B00031E004C080E090E020E030E0FA01318363
:1079C000208308950F931F93611520E772078105A7
:1079D000910570F441E08B019C010F77112722275C
:1079E0003327012B022B032B09F040E0242F01C089
:1079F00020E020FF14C02FB7F89407B600FCFDCF9D
:107A0000F999FECF33E0FB0130935700E89507B6B4
:107A100000FCFDCF91E190935700E8952FBF1F9197
:107A20000F9108950F931F93611520E77207810549
:107A3000910570F441E08B019C010F7711272227FB
:107A40003327012B022B032B09F040E0242F01C028
:107A500020E020FF14C02FB7F89407B600FCFDCF3C
:107A6000F999FECF35E0FB0130935700E89507B652
:107A700000FCFDCF91E190935700E8952FBF1F9137
:107A80000F91089507B600FCFDCFF999FECF21E0D4
:107A9000FB010A0120935700E8951124089529E07D
:107AA000FC01209357008491089520919301309117
:107AB00094012617370748F06115710539F42091B4
:107AC000E8002E7F2093E80001C0B901FC0120E00E
:107AD0006115710571F18EB38823E9F18530E9F103
:107AE0008091E80083FD3BC08091E80082FD2DC0BD
:107AF0008091E80080FFECCF2091F3008091F200AC
:107B000090E0922B6115710551F08032910538F4A7
:107B100021912093F100615071090196F3CF21E08A
:107B2000809709F020E08091E8008E7F8093E80044
:107B3000CFCF2111D0CF09C08EB3882361F085301B
:107B400061F08091E80083FD0AC08091E80082FF27
:107B5000F3CF80E0089582E0089583E0089581E006
:107B60000895EBEEF0E0808181608083EDEEF0E03F
:107B700010826093EC0040838091EE00881F88277C
:107B8000881F089580918D0187FF0FC08091E800C4
:107B900082FD04C08EB38111F9CF10C08091E8003E
:107BA0008B7F0AC08EB3882349F08091E80080FF64
:107BB000F9CF8091E8008E7F8093E800089562D02D
:107BC00069D0E0EEF0E0808181608083E8EDF0E054
:107BD00080818F77808319BCA7EDB0E08C918E7F78
:107BE0008C9380818F7E808310928C0108950F93F7
:107BF0001F93CF93DF9346D04DD0C8EDD0E088815E
:107C00008F77888388818068888388818F7D888347
:107C100019BC1EBA10928B0100EE10E0F8018081B1
:107C20008B7F808388818160888342E260E080E08E
:107C300098DFE1EEF0E080818E7F8083E2EEF0E07D
:107C4000808181608083808188608083F801808169
:107C50008E7F8083888180618883DF91CF911F919F
:107C60000F910895E8EDF0E080818F7E8083E7ED4D
:107C7000F0E080818160808384E082BF81E0809336
:107C80008C01B5CFE8EDF0E080818E7F808310928B
:107C9000E20008951092DA001092E10008951F9218
:107CA0000F920FB60F9211242F933F934F935F9330
:107CB0006F937F938F939F93AF93BF93EF93FF93B4
:107CC0008091DA0080FF1BC08091D80080FF17C030
:107CD0008091DA008E7F8093DA008091D90080FF56
:107CE0000BC080E189BD82E189BD09B400FEFDCFF2
:107CF00081E08EBB45D103C019BC1EBA41D1809131
:107D0000E10080FF17C08091E20080FF13C08091E6
:107D1000E2008E7F8093E2008091E2008061809398
:107D2000E2008091D80080628093D80019BC85E081
:107D30008EBB26D18091E10084FF2EC08091E200AD
:107D400084FF2AC080E189BD82E189BD09B400FEBB
:107D5000FDCF8091D8008F7D8093D8008091E10085
:107D60008F7E8093E1008091E2008F7E8093E2001D
:107D70008091E20081608093E20080918B018823F2
:107D800011F084E007C08091E30087FD02C081E02C
:107D900001C083E08EBBF4D08091E10083FF21C05D
:107DA0008091E20083FF1DC08091E100877F809376
:107DB000E10082E08EBB10928B018091E1008E7F0A
:107DC0008093E1008091E2008E7F8093E2008091B9
:107DD000E20080618093E20042E260E080E0C1DE88
:107DE000CFD0FF91EF91BF91AF919F918F917F91F4
:107DF0006F915F914F913F912F910F900FBE0F9018
:107E00001F9018951F93CF93DF9300D0CDB7DEB7A7
:107E1000EDE8F1E08091F100819381E0E539F80728
:107E2000C9F793DB8091E80083FF96C080918D01B4
:107E300090918E019630E1F128F4992351F095301C
:107E4000B1F08AC0983009F455C0993009F464C083
:107E500083C08D7F803809F07FC08091E800877FE4
:107E60008093E8001092F1001092F1004EC0811151
:107E700073C010918F011F778091E3008078812B70
:107E80008093E3008091E800877F8093E8007ADEAA
:107E90008091E80080FFFCCF8091E30080688093B0
:107EA000E300111102C082E001C083E08EBB54C028
:107EB0008058823008F050C0609191017091920119
:107EC000AE014F5F5F4F80918F019091900148DD2F
:107ED000BC01892B09F440C09091E800977F9093F2
:107EE000E80089819A81E1DD8091E8008B7F8093B1
:107EF000E80032C0803881F58091E800877F809368
:107F0000E80080918B018093F1008091E8008E7FE2
:107F10008093E80037DE20C081111EC080918F0160
:107F20009091900199270297BCF48091E800877F97
:107F30008093E80080918F0180938B0123DE8091F4
:107F40008B01811106C08091E30087FD02C081E0B2
:107F500001C084E08EBB14D08091E80083FF0AC08A
:107F60008091E800877F8093E8008091EB00806239
:107F70008093EB000F900F90DF91CF911F910895A8
:107F800008958EB3882321F08091E80083FD3ACFD5
:107F90000895F999FECF92BD81BDF89A992780B5D1
:107FA0000895262FF999FECF92BD81BDF89A0197C9
:107FB00000B4021639F01FBA20BD0FB6F894FA9A31
:0A7FC000F99A0FBE0895F894FFCF60
:107FCA00020120DCFB12034C005500460041002050
:107FDA000044004600550000001A034C00550046B4
:107FEA0000410020004C00690062007200610072CA
:107FFA0000790000000403090409021B00010100C2
:10800A0080320904000000FE010200092103000079
:10801A00000C10011201100100000020EB03F42FE4
:06802A000000010200014C
:040000030000700089
:00000001FF
