:1070000039C0000052C0000050C000004EC0000057
:107010004CC000004AC0000048C0000046C000004C
:1070200044C0000042C0000040C0000056C500003F
:107030003CC000003AC0000038C0000036C000006C
:1070400034C0000032C00000A5C100002EC0000006
:107050002CC000002AC0000028C0000026C000008C
:1070600024C0000022C0000020C000001EC000009C
:107070001CC0000011241FBECFEFD4E0DEBFCDBF87
:1070800011E0A0E0B1E0E6ECFDE702C005900D9252
:10709000A636B107D9F721E0A6E6B1E001C01D92FE
:1070A000A338B207E1F735D18CC6AACF8823A9F05F
:1070B0009091F20091110DC09091E8009B7F909308
:1070C000E8009091E80092FD06C09EB39111F9CFBF
:1070D00004C09091F1008150E9CF0895EEE6F1E00F
:1070E0003581248193818281909368018093690125
:1070F000C90190936601809367010895CF92DF9252
:10710000EF92FF921F93CF93DF9300D01F92CDB7E2
:10711000DEB79091780180916E019923D1F084308F
:1071200049F480916F01811108C0809170018F3FF7
:1071300021F455C0853009F4A3C08AE08093000192
:1071400083E0809376018091EB0080628093EB0076
:10715000D5C0843009F443C028F4813051F0833025
:10716000D9F0CCC0853009F48BC0863009F4B3C0A7
:10717000C5C010916F01123008F0C0C0AFDF11110F
:1071800009C0609168017091690120916A01822FA4
:1071900090E033D385E007C080916F01982F9D7FE9
:1071A00029F49CDF89E080930001A8C0813009F0B8
:1071B000A5C0E0E0F0E084918F3F59F010926A01A1
:1071C000F0936901E09368018AE08093000185E013
:1071D00093C03196E11520E7F20769F78FC08091DF
:1071E0006F01833091F581E080937701E091740124
:1071F000F091750180917001309761F0813009F054
:107200007DC0909173018091720190936B01809386
:107210006C0174C0811111C082E49CED90938401D3
:10722000809383019CE088E10FB6F894A895809341
:1072300060000FBE9093600061C0859194910196AB
:1072400009F05CC01092010159C0811157C08091B2
:1072500070018F3F09F052C0C12CD12C7601C701BB
:10726000B601CBD280E8C80ED11CE11CF11CC114C0
:1072700020E7D206E104F10491F7109278013EC0B4
:107280008091020190910301A091040189839A8366
:10729000AB838091700190916F01911107C0833091
:1072A00038F5FE01E80FF11D818112C0913031F5F2
:1072B000813359F020F48033D9F488E509C0803651
:1072C00031F08136A9F48AE803C08EE101C085E976
:1072D00080936D0113C080916F01833079F48091A8
:1072E000700181110BC08091710180936A0106C009
:1072F0008AE08093000188E0809376010F900F90E0
:107300000F90DF91CF911F91FF90EF90DF90CF9082
:10731000089584B7877F84BF0FB6F894A8958091AD
:107320006000886180936000109260000FBE90E062
:1073300080E80FB6F89480936100909361000FBECF
:10734000C1E0C5BF82E085BFB9D3C0936F0083E0C1
:10735000809381002C9A789480910101882311F008
:107360000ED5FACF809177018111FACF8FE99FE096
:107370000197F1F700C0000058D32C9810926F00CD
:107380001092810081E085BF15BEE0916B01F09104
:107390006C0109951F920F920FB60F9211241C9A3F
:1073A0000F900FBE0F901F9018955F926F927F9273
:1073B0008F929F92AF92BF92CF92DF92EF92FF9205
:1073C0000F931F93CF93DF9380917B018F7781324F
:1073D00009F0D1C11C9A8091810190918201909312
:1073E00075018093740180917C01833009F47DC123
:1073F00058F48130D1F0823009F0BDC18091E800AD
:10740000877F8093E800EAC0853009F494C108F4CE
:107410008AC1863009F0AFC18091E800877F8093F0
:10742000E80082E08093000196C18091E800877FA8
:107430008093E80080917701882319F05FDE109235
:1074400077018091740190917501009741F120912D
:10745000E80022FD04C02EB32111F9CF8CC1209188
:10746000F10020936E010197909375018093740150
:10747000EFE6F1E08091F200882381F08091F10045
:10748000819380917401909175010197909375019A
:107490008093740121E0E437F20761F72FDE8091D9
:1074A0000001853009F092C08091740190917501BE
:1074B000892B21F482E08093000188C08AE1F6DD07
:1074C0000091680110916901802F8F71EFDDC091EB
:1074D0006601D09167012196C01BD10B80916F018D
:1074E000811162C0D695C795680180916A01E82E26
:1074F000F12C7D2C682E5F2C10E02097B9F1809143
:10750000F2008823A9F021974091F1005091F100F9
:10751000C701B601D2D11F5F4601570182E0880E34
:10752000911CA11CB11C75016401103471F40FC0D1
:107530008091E8008B7F8093E8008091E80082FDD5
:10754000E2CF8EB38111F9CF16C12097B1F6602F2B
:10755000772D862D952D81D1209779F2C501B40123
:107560004CD1082D792C6A2C5B2CC6CF80916601FA
:1075700090916701909369018093680125C0809183
:10758000F2008823A1F021976091F10080916801B9
:107590009091690104D480916801909169010196EC
:1075A0009093690180936801209749F70DC08091FD
:1075B000E8008B7F8093E8008091E80082FDE3CFB4
:1075C0008EB38111F9CFD7C080E170DD8091E800E2
:1075D0008B7F88C08EB3882309F4CDC08091E800EA
:1075E00080FFF8CF80910001893091F08A3059F402
:1075F00080916F01813039F4909168018091690127
:107600009093F10002C080916D018093F10067C0FA
:107610002091680130916901C0916601D0916701A4
:107620002196C21BD30B80916F0181112EC0D6957C
:10763000C795C90120916A01A22FB0E02197E0F01F
:107640002091F200203259F0FC01259134912093D1
:10765000F1003093F1000296A11DB11DEFCF2091F2
:10766000E8002E7F2093E8002091E80020FDECCF79
:107670002EB32111F9CF7FC08091660190916701EF
:10768000909369018093680127C0823029F5209783
:1076900019F18091F200803291F08091680190910F
:1076A000690175D38093F10080916801909169011F
:1076B000019690936901809368012197E8CF8091AA
:1076C000E8008E7F8093E8008091E80080FDE5CFA0
:1076D0008EB38111F9CF4FC082E080930001809179
:1076E000E8008E7F8093E80036C08091E800877FB5
:1076F0008093E8008091E80080FD04C08EB3811182
:10770000F9CF39C0809176018093F1001092F10099
:107710001092F1001092F100809100018093F1002D
:107720001092F100DCCF8091E800877F8093E80021
:107730001092760110C08091E800877F8093E80066
:107740008091E80080FD04C08EB38111F9CF13C091
:10775000809100015ACFDF91CF911F910F91FF903F
:10776000EF90DF90CF90BF90AF909F908F907F90E1
:107770006F905F903DC1DF91CF911F910F91FF906E
:10778000EF90DF90CF90BF90AF909F908F907F90C1
:107790006F905F900895292F30E02230310559F025
:1077A0002330310569F021303105F9F482E190E0B0
:1077B00024E531E01EC08BE190E029E331E019C0FF
:1077C000882349F0813061F0823079F482E190E0E1
:1077D00025E031E00EC084E090E025E331E009C00F
:1077E0008AE190E029E131E004C080E090E020E00F
:1077F00030E0FA013183208308950F931F936115C0
:1078000020E772078105910570F441E08B019C012E
:107810000F77112722273327012B022B032B09F087
:1078200040E0242F01C020E020FF14C02FB7F894BF
:1078300007B600FCFDCFF999FECF33E0FB01309392
:107840005700E89507B600FCFDCF91E190935700F3
:10785000E8952FBF1F910F9108950F931F93611506
:1078600020E772078105910570F441E08B019C01CE
:107870000F77112722273327012B022B032B09F027
:1078800040E0242F01C020E020FF14C02FB7F8945F
:1078900007B600FCFDCFF999FECF35E0FB01309330
:1078A0005700E89507B600FCFDCF91E19093570093
:1078B000E8952FBF1F910F91089507B600FCFDCFEB
:1078C000F999FECF21E0FB010A0120935700E895CA
:1078D0001124089521E2FC0120935700849108951A
:1078E00029E0FC012093570084910895E1E0F0E045
:1078F00089E080935700849108959FB7F89407B664
:1079000000FCFDCFF999FECF809529E0E1E0F0E0A1
:10791000082E20935700E8959FBF0895209181017C
:10792000309182012617370748F06115710539F447
:107930002091E8002E7F2093E80001C0B901FC01EE
:1079400020E06115710559F18EB38823D1F185309E
:10795000D1F18091E80083FD38C08091E80082FD7C
:107960002AC08091E80080FFECCF8091F20090E087
:107970006115710551F08032910538F42191209301
:10798000F100615071090196F3CF21E0809709F071
:1079900020E08091E8008E7F8093E800D2CF211113
:1079A000D3CF09C08EB3882361F0853061F0809118
:1079B000E80083FD0AC08091E80082FFF3CF80E0F9
:1079C000089582E0089583E0089581E00895EBEE44
:1079D000F0E0808181608083EDEEF0E010826093C2
:1079E000EC0040838091EE00881F8827881F08954F
:1079F00080917B0187FF0FC08091E80082FD04C069
:107A00008EB38111F9CF10C08091E8008B7F0AC03E
:107A10008EB3882349F08091E80080FFF9CF8091F0
:107A2000E8008E7F8093E800089551D053D0E0EEB7
:107A3000F0E0808181608083E8EDF0E080818F77E5
:107A4000808319BCE3E6F0E080818160808310923E
:107A50007A0108953CD03ED08091D8008F778093F2
:107A6000D8008091D80080688093D8008091D80099
:107A70008F7D8093D80084E089BD86E089BD09B4FC
:107A800000FEFDCF1EBA1092790142E260E080E074
:107A90009EDF8091E1008E7F8093E1008091E20083
:107AA00081608093E2008091E20088608093E20030
:107AB0008091E0008E7F8093E0000895E3E6F0E09F
:107AC00080818E7F808381E080937A01C3CF109282
:107AD000E20008951092E10008951F920F920FB6F0
:107AE0000F9211242F933F934F935F936F937F9344
:107AF0008F939F93AF93BF93EF93FF938091E10098
:107B000080FF16C08091E20080FF12C08091E200E9
:107B10008E7F8093E2008091E20080618093E2009A
:107B20008091D80080628093D80019BC1EBA26D1FB
:107B30008091E10084FF2EC08091E20084FF2AC082
:107B400084E089BD86E089BD09B400FEFDCF809147
:107B5000D8008F7D8093D8008091E1008F7E809344
:107B6000E1008091E2008F7E8093E2008091E2004C
:107B700081608093E20080917901882311F084E094
:107B800007C08091E30087FD02C081E001C083E06F
:107B90008EBBF4D08091E10083FF21C08091E20090
:107BA00083FF1DC08091E100877F8093E10082E028
:107BB0008EBB109279018091E1008E7F8093E1006D
:107BC0008091E2008E7F8093E2008091E2008061EC
:107BD0008093E20042E260E080E0F9DECFD0FF91E6
:107BE000EF91BF91AF919F918F917F916F915F9135
:107BF0004F913F912F910F900FBE0F901F901895AE
:107C00001F93CF93DF9300D0CDB7DEB7EBE7F1E062
:107C10008091F100819381E0E338F807C9F7C5DB73
:107C20008091E80083FF96C080917B0190917C0158
:107C30009630E1F128F4992351F09530B1F08AC0E3
:107C4000983009F455C0993009F464C083C08D7F21
:107C5000803809F07FC08091E800877F8093E8003A
:107C60001092F1001092F1004EC0811173C010917A
:107C70007D011F778091E3008078812B8093E30062
:107C80008091E800877F8093E800B2DE8091E80071
:107C900080FFFCCF8091E30080688093E3001111A6
:107CA00002C082E001C083E08EBB54C080588230A5
:107CB00008F050C060917F0170918001AE014F5F6C
:107CC0005F4F80917D0190917E0165DDBC01892B24
:107CD00009F440C09091E800977F9093E800898173
:107CE0009A811CDE8091E8008B7F8093E80032C08F
:107CF000803881F58091E800877F8093E80080914B
:107D000079018093F1008091E8008E7F8093E800F4
:107D10006FDE20C081111EC080917D0190917E0197
:107D200099270297BCF48091E800877F8093E80050
:107D300080917D01809379015BDE809179018111D1
:107D400006C08091E30087FD02C081E001C084E0AD
:107D50008EBB14D08091E80083FF0AC08091E800B8
:107D6000877F8093E8008091EB0080628093EB0036
:107D70000F900F90DF91CF911F91089508958EB3CA
:107D8000882321F08091E80083FD3ACF0895F99986
:107D9000FECF92BD81BDF89A992780B50895262F10
:107DA000F999FECF92BD81BDF89A019700B40216F1
:107DB00039F01FBA20BD0FB6F894FA9AF99A0FBE9F
:067DC0000895F894FFCFC6
:107DC600020120DCFB12034C005500460041002056
:107DD6000044004600550000001A034C00550046BA
:107DE60000410020004C00690062007200610072D0
:107DF60000790000000403090409021B00010100C8
:107E060080320904000000FE01020009210300007F
:107E1600000C10011201100100000020EB03F02FEE
:067E260000000102000152
:107FA0002CCC5BCC8ACC96CC9BCCA0CCA6CC089518
:087FB000089508950895089555
:107FE000DFCFDFCFDFCFDFCFDFCFDFCFDFCFDFCF21
:087FF000DFCFDFCFDFCFDFCFD1
:087FF8000070000010DFFBDC4B
:040000030000700089
:00000001FF
